:020000040000FA
:100000000C9463000C948B000C948B000C948B006C
:100010000C948B000C948B000C948B000C948B0034
:100020000C948B000C948B000C948B000C94CB07DD
:100030000C948B000C948B000C948B000C948B0014
:100040000C9481070C948B000C944F070C94290797
:100050000C948B000C948B000C948B000C948B00F4
:100060000C948B000C948B000000000024002700EF
:100070002A0000000000250028002B0000000000DE
:1000800023002600290004040404040404040202DA
:100090000202020203030303030301020408102007
:1000A0004080010204081020010204081020000012
:1000B0000008000201000003040700000000000027
:1000C00000008708670C11241FBECFEFD8E0DEBF09
:1000D000CDBF11E0A0E0B1E0EEEBFEE102C0059083
:1000E0000D92AC3BB107D9F723E0ACEBB1E001C016
:1000F0001D92A032B207E1F710E0C2E6D0E004C0E2
:100100002197FE010E94510DC136D107C9F70E9407
:1001100060090C94520F0C9400008F929F92AF9242
:10012000BF92FF920F931F93CF93DF938F3F980758
:1001300011F490E080E0F09019032BE02F1508F403
:100140004CC020911B0308E512E0021B110927FD9A
:100150001395000F111F000F111F20911A03C8E8FB
:10016000D0E0C21BD10927FDD395CC0FDD1FCC0FEA
:10017000DD1F4E010D2E000CAA08BB089801012EB0
:10018000000C440B550B281939094A095B09DC019D
:100190000E94D50C24EB30E040E050E00E94AB0C14
:1001A000820E931EA41EB51E8C169D062CF0E8012F
:1001B000801691060CF4E4012297CC0FDD1F2FB7B7
:1001C000F8948F2D90E0FC01EE0FFF1FE80FF91F50
:1001D000E959FD4FD283C1832FBFDF91CF911F918A
:1001E0000F91FF90BF90AF909F908F90089596E0F1
:1001F000899FD0011124AE56BD4F90967C936E938B
:100200005F9791E091969C939197E091FF02F09116
:1002100000039091FE02992339F0309751F081113B
:1002200008C08091AE020994309719F05C968C91C9
:10023000FACF0895CF92DF92EF92FF920F931F9320
:1002400096E0899FF0011124EE56FD4F11A2278DF3
:1002500030A12130310551F178F02230310509F417
:1002600051C02330310509F452C01F910F91FF9006
:10027000EF90DF90CF9008956623B9F361E070E0CE
:100280000E94F7002FB7F8948091C6019091C701A2
:10029000A091C801B091C9012FBF8093EA02909349
:1002A000EB02A093EC02B093ED02DFCF9FB7F8947E
:1002B000C090C601D090C701E090C801F090C9017C
:1002C0009FBF0091EA021091EB022091EC02309165
:1002D000ED02C01AD10AE20AF30A0091FC02109161
:1002E000FD0230E020E00C151D052E053F0550F401
:1002F00062E070E01F910F91FF90EF90DF90CF9040
:100300000C94F7006111B1CF63E070E0F3CF70E0BF
:1003100060E0F0CFAF92BF92CF92DF92EF92FF9268
:100320000F931F93CF93DF936C017B018B01040F1D
:10033000151FEB015E01AE18BF08C017D10759F0B9
:100340006991D601ED91FC910190F081E02DC601FB
:100350000995892B79F7C501DF91CF911F910F91F5
:10036000FF90EF90DF90CF90BF90AF900895FC0189
:10037000538D448D252F30E0842F90E0821B930B0A
:10038000541710F0CF96089501970895FC01918DB0
:10039000828D981761F0A28DAE0FBF2FB11D5D96B3
:1003A0008C91928D9F5F9F73928F90E008958FEF55
:1003B0009FEF0895FC01918D828D981731F0828D09
:1003C000E80FF11D858D90E008958FEF9FEF089560
:1003D000FC01918D228D892F90E0805C9F4F821BC4
:1003E00091098F73992708958AEC91E00E94E801A2
:1003F00021E0892B09F420E0822F089580E090E02D
:10040000892B29F00E94F40181110C9400000895B9
:10041000FC01A48DA80FB92FB11DA35ABF4F2C9179
:10042000848D90E001968F739927848FA689B78970
:100430002C93A089B1898C91837080648C93938D67
:10044000848D981306C00288F389E02D80818F7D0A
:1004500080830895EF92FF920F931F93CF93DF93C2
:10046000EC0181E0888F9B8D8C8D98131AC0E889F0
:10047000F989808185FF15C09FB7F894EE89FF89BF
:100480006083E889F98980818370806480839FBF5D
:1004900081E090E0DF91CF911F910F91FF90EF905D
:1004A0000895F62E0B8D10E00F5F1F4F0F7311276D
:1004B000E02E8C8D8E110CC00FB607FCFACFE889A8
:1004C000F989808185FFF5CFCE010E940802F1CF26
:1004D000EB8DEC0FFD2FF11DE35AFF4FF0829FB71C
:1004E000F8940B8FEA89FB8980818062CFCFCF930C
:1004F000DF93EC01888D8823B9F0AA89BB89E8894C
:10050000F9898C9185FD03C0808186FD0DC00FB6F1
:1005100007FCF7CF8C9185FFF2CF808185FFEDCF6F
:10052000CE010E940802E9CFDF91CF910895833078
:1005300081F028F4813099F08230A9F00895873055
:10054000A9F08830C9F08430B1F4809180008F7DAB
:1005500003C0809180008F7780938000089584B5D8
:100560008F7784BD089584B58F7DFBCF8091B000D7
:100570008F778093B00008958091B0008F7DF9CF80
:10058000CF93DF93282F30E0F901E255FF4F84919C
:10059000F901E656FF4FD491F901EA57FF4FC49194
:1005A000CC23A1F081110E949702EC2FF0E0EE0F16
:1005B000FF1FE458FF4FA591B491EC91ED2381E02A
:1005C00090E009F480E0DF91CF91089580E090E021
:1005D000FACF862F0C94C0021F93CF93DF93282F5E
:1005E00030E0F901E255FF4F8491F901E656FF4FE3
:1005F000D491F901EA57FF4FC491CC23A9F0162FEB
:1006000081110E949702EC2FF0E0EE0FFF1FEE58D1
:10061000FF4FA591B4918FB7F894EC91111108C0D8
:10062000D095DE23DC938FBFDF91CF911F9108958A
:10063000DE2BF8CF862F642F0C94EC02CF93DF9340
:1006400090E0FC01E656FF4F24918A579F4FFC0132
:1006500084918823C9F090E0880F991FFC01E85924
:10066000FF4FA591B491FC01EE58FF4FC591D49175
:1006700061110DC09FB7F8948C91209582238C93C3
:100680008881282328839FBFDF91CF91089562300E
:1006900051F49FB7F8943C91822F809583238C93DB
:1006A000E8812E2BEFCF8FB7F894EC912E2B2C9363
:1006B0008FBFEACF862F642F0C941E036F927F9218
:1006C0008F929F92AF92BF92CF92DF92EF92FF9262
:1006D0000F931F93CF93DF9381E08093FE028FB738
:1006E000F8944091C6015091C7016091C801709182
:1006F000C9018FBF8091EE029091EF02A091F002AC
:10070000B091F102481B590B6A0B7B0B8091FA02E6
:100710009091FB02B0E0A0E084179507A607B70709
:1007200008F01DC1C0E08091F802C81760F4E091A4
:10073000F402F091F502EC0FF11D62E080810E945D
:100740001E03CF5FF0CF712C812C912C5401839428
:100750008091F902781608F05FC0072D10E0E09153
:10076000F602F091F702E00FF11F61E080810E9434
:100770001E03E091F602F091F702E00FF11F60E036
:1007800080810E94EC02D501C401072C04C0880FAF
:10079000991FAA1FBB1F0A94D2F76C017C01E09439
:1007A000F094612C8091F8026816F8F4C62DD0E020
:1007B000E091F402F091F502EC0FFD1F80810E94A0
:1007C000C0022496CC0FDD1FCE56DD4F892B41F49D
:1007D000888199818C299D29998388836394E2CFAC
:1007E000888199818E219F21F7CFE091F602F091C7
:1007F000F702E00FF11F61E080810E94EC0280911E
:10080000F6029091F702080F191F60E0F80180814D
:100810000E941E0373949CCFC2E9D2E0FE018FEFC9
:100820009FEF278D30A1232B21F4148E968F858F77
:1008300011A2369622E0EE3CF20799F7F12C96E0F1
:10084000D92E8091F802F81608F050C0E12C0F2D37
:1008500010E0000F111F06561D4F2091F902E216FD
:1008600008F042C0F801608171810E2C02C07695BB
:1008700067950A94E2F7F29E900111242E0D311D26
:10088000E2E9F2E080E0458D568D2417350709F442
:100890006AC08F5F36968A30B1F760FF23C0E2E905
:1008A000F2E090E080E0448D411117C0E091F20247
:1008B000F091F302E20FF31F4081D89EF001D99E20
:1008C000F00D1124EE56FD4F448F368F258F10A268
:1008D000178E61E00E941A0105C0019636968A3093
:1008E000910509F7E394B9CFF394ABCF80E099A1D8
:1008F0009111892F2696F2E0CE3CDF07C1F79FB712
:10090000F8944091C6015091C7016091C80170915F
:10091000C9019FBF4093EE025093EF026093F00233
:100920007093F1028823D9F08091B3028823B9F043
:100930008091B1029091B202019789F48091AE0248
:10094000DF91CF911F910F91FF90EF90DF90CF90AB
:10095000BF90AF909F908F907F906F90089510926E
:10096000FE0280E0EDCF6170B5CF3FB7F894809183
:10097000BE019091BF01A091C001B091C10126B507
:10098000A89B05C02F3F19F00196A11DB11D3FBFC7
:10099000BA2FA92F982F8827BC01CD01620F711D96
:1009A000811D911D42E0660F771F881F991F4A9590
:1009B000D1F708958F929F92AF92BF92CF92DF921C
:1009C000EF92FF924B015C010E94B5046B017C0128
:1009D0000E94B5046C197D098E099F09683E734019
:1009E00081059105A8F321E0821A9108A108B108B8
:1009F00088EEC80E83E0D81EE11CF11C811491041E
:100A0000A104B10429F7FF90EF90DF90CF90BF9041
:100A1000AF909F908F900895089590E080E00895A2
:100A2000CF93DF93EC0160E08E810E94EC0261E0E5
:100A30008E810E94EC0260E08E810E94EC028BE8C5
:100A400091E00197F1F7DF91CF910895CF92DF9276
:100A5000EF92FF920F931F93CF93DF936C017C0172
:100A600087E0E80EF11CD0E0C0E0062F10E0B801EE
:100A70000C2E02C0759567950A94E2F76170F70134
:100A800081917F010E94EC022196C430D10579F753
:100A9000C601DF91CF911F910F91FF90EF90DF90F2
:100AA000CF900C941005CF92DF92EF92FF920F93AC
:100AB0001F93CF93DF93EC01F62E642F8C810E945D
:100AC000EC028D818F3F19F060E00E94EC020F2D47
:100AD00010E08F8584FF25C06E0187E0C80ED11C11
:100AE000F12CE12CB8010E2C02C0759567950A9483
:100AF000E2F76170F60181916F010E94EC02FFEF55
:100B0000EF1AFF0A88E0E816F10461F7CE01DF91E1
:100B1000CF911F910F91FF90EF90DF90CF900C94A9
:100B20001005B80184E0759567958A95E1F7CE01C7
:100B30000E9426056F2DCE01DF91CF911F910F915D
:100B4000FF90EF90DF90CF900C94260540E0682F47
:100B500081E093E00C94530581E00E94A6058BE3AD
:100B60009FE10197F1F70895CF93DF93823029F445
:100B70009091100398609093100380931403109247
:100B8000150380E48093160380E18093170380E5CA
:100B90008093180361E0809105030E941E038091F9
:100BA00006038F3F19F061E00E941E0361E080910F
:100BB00007030E941E03C1E0D3E09E012150334091
:100BC0008091100384FD0BC084E090E021962817EB
:100BD000390744F461E08E810E941E03EECF88E065
:100BE00090E0F4CF8BE39DE00197F1F760E0809116
:100BF00005030E94EC0260E0809107030E94EC0272
:100C0000809106038F3F19F060E00E94EC02809112
:100C1000100384FD34C063E081E093E00E94260568
:100C2000CBE4D6E4CE010197F1F763E081E093E0F5
:100C30000E9426052197F1F763E081E093E00E948E
:100C4000260583E592E00197F1F762E081E093E009
:100C50000E9426058091100380620E94A60584E010
:100C6000809311038CE00E94A6050E94AC0582E0EF
:100C70008093120386E0DF91CF910C94A6058062E9
:100C80000E94A6058BE496E40197F1F7809110038A
:100C900080620E94A60583E592E00197F1F78091BA
:100CA000100380620E94A605D5CF90911403891786
:100CB00010F08FEF890FE82FF0E0EF5FFC4F848991
:100CC00080680C94A60541E00E94530581E090E005
:100CD0000895FC0101900020E9F73197AF01481B0E
:100CE000590BBC0181E093E00C948A01FC018081E6
:100CF0009181009711F00C94F30D0895FF920F93DA
:100D00001F93CF93DF93EC01F62E08811981C80160
:100D10000E94950CF81621F06F2DC8010E949D0CC1
:100D2000CE01DF91CF911F910F91FF9008950C9408
:100D3000950C0F931F93CF93DF93EC0188819981DA
:100D4000009759F02A813B812617370730F081E060
:100D5000DF91CF911F910F9108958B016F5F7F4FAE
:100D60000E947C0E009759F0998388831B830A8325
:100D70002C813D81232B59F7FC011082E8CF80E0C4
:100D8000E7CFEF92FF920F931F93CF93DF936115FD
:100D9000710541F480E0DF91CF911F910F91FF9099
:100DA000EF90089541155105B1F07B01EC010C81E4
:100DB0001D81040F151FB8010E949906882351F365
:100DC000288139818C819D81B701820F931F0E94F8
:100DD0004B0F1D830C8381E0DECFEF92FF920F93C8
:100DE0001F93CF93DF93EC017B018A01BA010E942C
:100DF000990628813981811114C02115310519F016
:100E0000C9010E94F30D198218821D821C821B8267
:100E10001A82CE01DF91CF911F910F91FF90EF9039
:100E200008951D830C83B701C9010E944B0FF1CFB8
:100E3000FC01118210821382128215821482FB013E
:100E400001900020E9F73197AF01461B570B0C9436
:100E5000ED061F920F920FB60F9211242F933F931E
:100E60004F935F936F937F938F939F93AF93BF93B2
:100E7000EF93FF938AEC91E00E940802FF91EF91BB
:100E8000BF91AF919F918F917F916F915F914F91A2
:100E90003F912F910F900FBE0F901F9018951F92AA
:100EA0000F920FB60F9211242F938F939F93EF936E
:100EB000FF93E091DA01F091DB018081E091E001A4
:100EC000F091E10182FD1BC090818091E3018F5F71
:100ED0008F732091E401821741F0E091E301F0E08B
:100EE000E653FE4F958F8093E301FF91EF919F9121
:100EF0008F912F910F900FBE0F901F9018958081AA
:100F0000F4CF1F920F920FB60F9211242F933F939D
:100F10008F939F93AF93BF938091C6019091C70128
:100F2000A091C801B091C9013091BD0123E0230F08
:100F30002D3758F50196A11DB11D2093BD01809359
:100F4000C6019093C701A093C801B093C9018091D5
:100F5000BE019091BF01A091C001B091C101019665
:100F6000A11DB11D8093BE019093BF01A093C0014C
:100F7000B093C101BF91AF919F918F913F912F91FC
:100F80000F900FBE0F901F90189526E8230F029622
:100F9000A11DB11DD2CF1F920F920FB60F92112437
:100FA0002F933F934F935F936F937F938F939F9371
:100FB000AF93BF93CF93DF93EF93FF938091BC01E7
:100FC000C0918B02D0E087FF24C010928500109260
:100FD00084008091BC018F5F8093BC018091BC0133
:100FE000082E000C990B8C179D0724F48091BC01EE
:100FF0008C30C4F1809184009091850004968034F7
:101000009C4908F47AC080918400909185000496F0
:1010100076C08091BC01082E000C990B8C179D079F
:10102000C4F6E091BC018E2FEE0F990BFC01EE0F80
:10103000FF1FE80FF91FE959FD4F808186FFC9CFD7
:10104000E091BC018E2FEE0F990BFC01EE0FFF1FFC
:10105000E80FF91FE959FD4F808160E08F730E940E
:10106000EC02B7CF2091840030918500E091BC0163
:101070008E2FEE0F990BFC01EE0FFF1FE80FF91FEB
:10108000E959FD4F81819281820F931F90938900CE
:1010900080938800E091BC018E2FEE0F990BFC012C
:1010A000EE0FFF1FE80FF91FE959FD4F808186FF02
:1010B00011C0E091BC018E2FEE0F990BFC01EE0FD9
:1010C000FF1FE80FF91FE959FD4F808161E08F7321
:1010D0000E94EC02FF91EF91DF91CF91BF91AF9110
:1010E0009F918F917F916F915F914F913F912F9140
:1010F0000F900FBE0F901F90189580E49CE990937D
:101100008900809388008FEF8093BC01E3CF109219
:10111000CD011092CC0188EE93E0A0E0B0E0809386
:10112000CE019093CF01A093D001B093D10186E27C
:1011300091E09093CB018093CA0185EC90E090936D
:10114000D7018093D60184EC90E09093D9018093ED
:10115000D80180EC90E09093DB018093DA0181EC80
:1011600090E09093DD018093DC0182EC90E090931D
:10117000DF018093DE0186EC90E09093E1018093A3
:10118000E0011092E3011092E4011092E501109247
:10119000E60180918B028C3008F08EC091E0980FB0
:1011A00090938B028093190390E0FC01EE0FFF1FD8
:1011B000E80FF91FE959FD4F88EB9BE0928381838B
:1011C000109204031092030382E491E090930203CF
:1011D000809301038EE0809305038FEF80930603D5
:1011E0008FE08093070380E18093080381E180937F
:1011F000090382E180930A0383E180930B03109239
:101200000C0310920D0310920E0310920F03109214
:10121000100381E00E94B40510929402109298028B
:10122000109297021092990288E391E090939302B2
:1012300080939202EEEAF2E0108214821382158209
:10124000369682E0EA3EF807B9F788E091E090939D
:10125000F5028093F40284E091E09093F70280938A
:10126000F60284E08093F8028093F9028CE091E02A
:101270009093F3028093F2028AE090E09093FB0255
:101280008093FA0284EF91E09093FD028093FC0238
:10129000109200031092FF021092EE021092EF02E1
:1012A0001092F0021092F1021092FE0260EB71E0D7
:1012B0008CE892E00C9418078FEF8093190380CF8D
:1012C000CF93DF93CDB7DEB765970FB6F894DEBF47
:1012D0000FBECDBF789484B5826084BD84B5816033
:1012E00084BD85B5826085BD85B5816085BD8091F1
:1012F0006E00816080936E00109281008091810069
:101300008260809381008091810081608093810060
:10131000809180008160809380008091B100846022
:101320008093B1008091B00081608093B000809183
:101330007A00846080937A0080917A008260809342
:101340007A0080917A00816080937A0080917A009F
:10135000806880937A001092C10060E085E00E946E
:101360001E0360E083E00E941E0361E084E00E94AF
:101370001E03809119038C3008F051C061E082E0B7
:101380000E941E0380911903282F30E0F901EE0F0F
:10139000FF1FE20FF31FE959FD4F9081907C92608F
:1013A000908310921A0310921B032CE0622F0E946C
:1013B000450D829FB001112430E020E0AB01420FC7
:1013C000531FFA01EE0FFF1FE40FF51FE959FD4F00
:1013D000908196FD16C02F5F3F4F2C30310571F77D
:1013E00081110FC01092800082E0809381001092E2
:1013F000850010928400B19A80916F008260809382
:101400006F00E09119038E2F90E0FC01EE0FFF1F9B
:10141000E80FF91FE959FD4F808180648083E091D6
:10142000DA01F091DB0182E08083E091D601F09156
:10143000D7011082E091D801F091D9018FEC80831F
:101440001092E201E091DE01F091DF0186E08083FD
:10145000E091DC01F091DD01808180618083E09189
:10146000DC01F091DD01808188608083E091DC0106
:10147000F091DD01808180688083E091DC01F09152
:10148000DD0180818F7D808382E00E94B40560E071
:1014900090E080E00E949D0C8E010F5F1F4F20E0C6
:1014A000A22E20E0B22E33E0E32EF12CCC24C39404
:1014B000D12C90E080E00E94970681116DC063E01E
:1014C00082E090E00E949D0C0E945E03982E809125
:1014D000C4019091C501892B59F48AE491E00E94DE
:1014E000690681E00E945506D092C501C092C401F0
:1014F00083E2981237C060910201DA82C982C80182
:101500000E947E0681E090E00E9497068090000194
:10151000909001018815190411F00CF05EC1F09251
:101520000101E09200010E94AC058CE591E00E946F
:10153000690660ED77E080E090E00E94DA040E94A6
:10154000AC0561E090E080E00E949D0CA114B10424
:1015500009F4AFCF0E94F401882309F4A7CF0E94B9
:101560000000A4CF992091F389E691E00E946906DA
:1015700080910201909103019A838983692DC801AA
:101580000E947E0680910201909103010196909342
:10159000030180930201DACF82E090E00E94970677
:1015A000982E8091C2019091C301892B59F4D09259
:1015B000C301C092C2018BE691E00E94690681E0FE
:1015C0000E94550660EB71E0CE0140960E9418071C
:1015D00080911103982F91609093110389600E946C
:1015E000A60581E090E00E94950C209100013091C9
:1015F000010182171306A1F19CF10E945E03882E5F
:101600008823B1F089E691E00E94690689821A82F6
:1016100041E050E0B801CE0140960E94C1068091A1
:1016200000019091010101969093010180930001C6
:1016300083E00E94C0020197A1F6712C612CC301C6
:101640000E948D0067E070E080E090E00E94DA0484
:10165000EFEF6E1A7E0AFBE56F16710481F7C1CFBA
:101660002C893D8980919002909191022817390729
:10167000B1F48889998960918C0270918D020097EC
:1016800009F4BFC06115710539F4232B09F4C7C0F3
:10169000FC01808190E0C0C00E94420FBDC00E944A
:1016A000AC05F0920101E0920001F0920301E0929A
:1016B00002011092C3011092C20182E090E09A836D
:1016C00089836FEF690DC8010E947E068DE991E064
:1016D0000E94690681E00E94550682E090E00E9427
:1016E00097061B861A861D861C861F861E864AE064
:1016F000B80190E00E946B0CF80101900020E9F71E
:101700003197AF01401B510BB801CE010A960E94E0
:10171000ED0663EA71E0C8010E9418074E855F85F7
:101720006A857B85C8010E94C10681110CC0898130
:101730009A81009711F00E94F30D1A8219821E827D
:101740001D821C821B824D815E8169817A8181E0CC
:1017500093E00E948A01C8010E947606CE010A9693
:101760000E94760660ED77E080E090E00E94DA0467
:101770000E94AC0582E090E00E949706811128C08B
:1017800080E00E94550681EB91E00E94690661E0CD
:1017900084E00E94EC0285E00E94C002019781F77C
:1017A00060E090E080E00E949D0C0E94AC0560E04B
:1017B00084E00E94EC0250E040E060EB71E08CE8D5
:1017C00092E00E94ED06CE0140960E94760671CE10
:1017D0001092C5011092C40175C0C4010E94950CFD
:1017E00089831A8241E050E0B8018CE892E00E94BF
:1017F000C1068FEF881A980A909201018092000129
:1018000081CE6115710559F0232B49F0FB018081D0
:1018100090E0919581959109892B09F040CF0E9424
:10182000AC058CE791E00E9469068AE5882E912C30
:10183000C4010E948D0067E070E080E090E00E94AB
:10184000DA04F1E08F1A910898F70E94AC0581E85C
:1018500091E00E94690681E00E9455068FE891E0C0
:101860000E94690683E00E94C0020197D9F7912C7B
:10187000812CC4010E948D0067E070E080E090E060
:101880000E94DA04EFEF8E1A9E0AFBE58F16910490
:1018900081F70E94AC0580E00E945506F09203019A
:1018A000E0920201F0920101E09200011092C30166
:1018B0001092C20182E090E09A83898363E0C801BC
:1018C0000E947E06CE0140960E9476063FCE8CE8AE
:1018D00092E00C947606BB27FB015527AA27880FB8
:1018E000991FAA1FA41710F0A41B83955051B9F794
:1018F000A05DAA3308F0A95DA193009779F7B11113
:10190000B1931192CB010C94850CDC01FC01672F83
:1019100071917723E1F7329704C07C916D937083C6
:101920006291AE17BF07C8F30895F999FECF92BD33
:1019300081BDF89A992780B50895262FF999FECF91
:101940001FBA92BD81BD20BD0FB6F894FA9AF99ADC
:101950000FBE01960895052E97FB1EF400940E9479
:10196000C20C57FD07D00E94140D07FC03D04EF4A3
:101970000C94C20C50954095309521953F4F4F4F98
:101980005F4F089590958095709561957F4F8F4F2B
:101990009F4F08950E94360DA59F900DB49F900D06
:1019A000A49F800D911D11240895B7FF0C94CA0CBB
:1019B0000E94CA0C821B930B08952F923F924F9264
:1019C0005F926F927F928F929F92AF92BF92CF92CF
:1019D000DF92EF92FF920F931F93CF93DF93CDB7D8
:1019E000DEB7CA1BDB0B0FB6F894DEBF0FBECDBF50
:1019F00009942A88398848885F846E847D848C8421
:101A00009B84AA84B984C884DF80EE80FD800C8129
:101A10001B81AA81B981CE0FD11D0FB6F894DEBF0C
:101A20000FBECDBFED010895A1E21A2EAA1BBB1B6C
:101A3000FD010DC0AA1FBB1FEE1FFF1FA217B3079A
:101A4000E407F50720F0A21BB30BE40BF50B661FB0
:101A5000771F881F991F1A9469F760957095809574
:101A600090959B01AC01BD01CF010895A29FB001EB
:101A7000B39FC001A39F700D811D1124911DB29FC2
:101A8000700D811D1124911D0895991B79E004C0EA
:101A9000991F961708F0961B881F7A95C9F78095AD
:101AA0000895EE0FFF1F0590F491E02D09940F9318
:101AB0001F93CF93DF938230910510F482E090E082
:101AC000E0911E03F0911F0330E020E0B0E0A0E0C1
:101AD000309799F42115310509F44AC0281B390BB8
:101AE00024303105D8F58A819B816115710589F112
:101AF000FB0193838283FE0111C0408151810281E9
:101B0000138148175907E0F04817590799F41097BF
:101B100061F012960C93129713961C933296CF0194
:101B2000DF91CF911F910F91089500931E031093A1
:101B30001F03F4CF2115310551F04217530738F038
:101B4000A901DB019A01BD01DF01F801C1CFEF015D
:101B5000F9CF90931F0380931E03CDCFFE01E20FB8
:101B6000F31F819391932250310939832883D7CF72
:101B700020911C0330911D03232B41F420911E0161
:101B800030911F0130931D0320931C0320911C01F1
:101B900030911D012115310541F42DB73EB740911B
:101BA000200150912101241B350BE0911C03F09181
:101BB0001D03E217F307A0F42E1B3F0B281739076C
:101BC00078F0AC014E5F5F4F2417350748F04E0F99
:101BD0005F1F50931D0340931C03819391939FCFEC
:101BE000F0E0E0E09CCFCF93DF930097E9F0FC01B9
:101BF000329713821282A0911E03B0911F03ED0150
:101C000030E020E01097A1F420813181820F931FF2
:101C100020911C0330911D032817390709F061C07A
:101C2000F0931D03E0931C03DF91CF910895EA0127
:101C3000CE17DF07E8F54A815B819E01411551050A
:101C4000B1F7E901FB83EA8349915991C40FD51F8C
:101C5000EC17FD0761F4808191810296840F951F36
:101C6000E90199838883828193819B838A83F0E051
:101C7000E0E012968D919C9113970097B9F52D9104
:101C80003C911197CD010296820F931F20911C0366
:101C900030911D032817390739F6309751F5109206
:101CA0001F0310921E03B0931D03A0931C03BCCF0F
:101CB000D383C28340815181840F951FC817D907F0
:101CC00061F44E5F5F4F88819981480F591F51839E
:101CD00040838A819B81938382832115310509F09A
:101CE000B0CFF0931F03E0931E039ECFFD01DC01F4
:101CF000C0CF13821282D7CFB0E0A0E0E2E8FEE0CE
:101D00000C94DF0C8C01009751F4CB010E94570D0D
:101D10008C01C801CDB7DEB7E0E10C94FB0CFC01EF
:101D2000E60FF71F9C0122503109E217F30708F470
:101D30009DC0D901CD91DC911197C617D70798F0B6
:101D4000C530D10530F3CE0104978617970708F305
:101D5000C61BD70B2297C193D1936D937C93CF0170
:101D60000E94F30DD6CF5B01AC1ABD0A4C018C0E5C
:101D70009D1EA0911E03B0911F03512C412CF12CEC
:101D8000E12C109731F580911C0390911D0388156B
:101D9000990509F05CC04616570608F058C08091B6
:101DA0001C0190911D01009741F48DB79EB74091A1
:101DB000200150912101841B950BE817F90708F0C9
:101DC00055C0F0931D03E0931C03F90171836083F8
:101DD000A0CF8D919C91119712966C9012971396AB
:101DE0007C901397A815B90559F56C0142E0C40E13
:101DF000D11CCA14DB0420F1AC014A195B09DA01D9
:101E00001296159780F06282738251834083D901C4
:101E10006D937C93E114F10471F0D7011396FC9358
:101E2000EE93129776CF22968C0F9D1FF901918326
:101E30008083F301EFCFF0931F03E0931E0369CF7C
:101E40004816590608F42C017D01D3019ACFCB0125
:101E50000E94570D7C01009749F0AE01B8010E9425
:101E6000390FC8010E94F30D870153CF10E000E045
:101E700050CFFB01DC0102C001900D924150504057
:101E8000D8F70895FB01DC018D91019080190110B4
:101E9000D9F3990B0895FB01DC0101900D9200200C
:101EA000E1F7089510E0C2E6D0E004C0FE010E9410
:101EB000510D2196C336D107C9F7F894FFCF03001F
:101EC0000300090807060D0C0B0A31323341343583
:101ED0003642373839432A3023440000200380003B
:101EE000000000002A028A01B7017702E801C6015A
:101EF000DA01000000005A031A03E90200000000A2
:101F000063068A010D050C05736574207061737397
:101F1000207468656E273D273E0020207061737332
:101F2000207361766564002A00656E7465722070A6
:101F3000617373776F72643A3E00747275650070F6
:101F40007265737320627574746F6E2000746F20F5
:101F5000636C6F73653A3A3E3E200066616C736550
:101F60000074726961206C65667465643A200020B3
:0A1F700020202020616C61726D00DA
:107E0000112484B714BE81FFF0D085E080938100F7
:107E100082E08093C00088E18093C10086E0809377
:107E2000C20080E18093C4008EE0C9D0259A86E02C
:107E300020E33CEF91E0309385002093840096BBD3
:107E4000B09BFECF1D9AA8958150A9F7CC24DD24C4
:107E500088248394B5E0AB2EA1E19A2EF3E0BF2EE7
:107E6000A2D0813461F49FD0082FAFD0023811F036
:107E7000013811F484E001C083E08DD089C08234E0
:107E800011F484E103C0853419F485E0A6D080C0E4
:107E9000853579F488D0E82EFF2485D0082F10E0AE
:107EA000102F00270E291F29000F111F8ED06801E7
:107EB0006FC0863521F484E090D080E0DECF843638
:107EC00009F040C070D06FD0082F6DD080E0C81688
:107ED00080E7D80618F4F601B7BEE895C0E0D1E017
:107EE00062D089930C17E1F7F0E0CF16F0E7DF06D8
:107EF00018F0F601B7BEE89568D007B600FCFDCFD4
:107F0000A601A0E0B1E02C9130E011968C91119780
:107F100090E0982F8827822B932B1296FA010C0160
:107F200087BEE89511244E5F5F4FF1E0A038BF0790
:107F300051F7F601A7BEE89507B600FCFDCF97BE46
:107F4000E89526C08437B1F42ED02DD0F82E2BD052
:107F50003CD0F601EF2C8F010F5F1F4F84911BD097
:107F6000EA94F801C1F70894C11CD11CFA94CF0C13
:107F7000D11C0EC0853739F428D08EE10CD085E9AC
:107F80000AD08FE07ACF813511F488E018D01DD067
:107F900080E101D065CF982F8091C00085FFFCCF94
:107FA0009093C60008958091C00087FFFCCF809118
:107FB000C00084FD01C0A8958091C6000895E0E648
:107FC000F0E098E1908380830895EDDF803219F02E
:107FD00088E0F5DFFFCF84E1DECF1F93182FE3DFCA
:107FE0001150E9F7F2DF1F91089580E0E8DFEE27F6
:047FF000FF270994CA
:027FFE00040479
:00000001FF
